:100000000A128A11EC2F00308A000408840A820741
:10001000003444345334313433343034373452348C
:1000200054344334203449346E3474346534723477
:1000300066340034483461347634653420344134D5
:10004000203447346F346F346434203420344434E3
:1000500061347934003420342D3420344234473430
:1000600047346F34703461346C3420340034573486
:10007000653464346E346534733464346134793493
:1000800000345334613474347534723464346134FC
:1000900079340034543468347534723473346434CD
:1000A0006134793400342034543449344D34453487
:1000B0003A34203400345434753465347334643441
:1000C00061347934003444344134543445343A345E
:1000D0002034003446347234693464346134793401
:1000E00000344D346F346E34643461347934003408
:1000F000533475346E3464346134793400344434A8
:0A010000413459343A3420340034FD
:10011A00FB00F901FA01A42879087B0784000A1276
:10012A008A1103200A128A110A128A11A8220A12B3
:10013A008A110130F9070318FA0A0030FA07790818
:10014A007B0784000A128A1103200A128A11003AD4
:10015A00031DB028B128912808000A128A154D27D4
:10016A000A128A118316031391150A128A154D274A
:10017A000A128A11831203131308F200F301720898
:10018A00F4007308F5000A128A154D270A128A111B
:10019A00700871040319D228D628831603139116FE
:1001AA00D92883160313911211167508F1007408E1
:1001BA00F00008000A30F0000030F1007A08F3007D
:1001CA007908F2000A128A1169230A128A11700840
:1001DA00FB007108FC00FB0EFC0EF030FC057B08EE
:1001EA000F39FC04F030FB050A30F0000030F10052
:1001FA007A08F3007908F2000A128A114F220A12C9
:10020A008A1170087B07F90071080318710A7C07C4
:10021A00FA0008000030FC000030FB000030FA0051
:10022A000030F900701C1A291B2932297408F907B1
:10023A00750803110318013E03192429FA077608E1
:10024A0003110318013E03192B29FB077708031131
:10025A000318013E03193229FC070130F800031084
:10026A00F40DF50DF60DF70DF80B342901300310D6
:10027A00F30CF20CF10CF00CFF3E031D3C29730841
:10028A00720471047004031D4B294C2917297C0838
:10029A00F3007B08F2007A08F1007908F000080000
:1002AA00F7007703031D5A295B297E2974087F3ECC
:1002BA00F5007508FA007A08F50004300310F50C09
:1002CA00FF3E031D63297508F6007608F8007A08D0
:1002DA000F39F5007508F90078080A128A157A2785
:1002EA000A128A1179080A128A157A270A128A11B9
:1002FA00A62902307706031D83298429A6297408B2
:10030A00BF3EF5007508FA007A08F50004300310BC
:10031A00F50CFF3E031D8C297508F6007608F800D7
:10032A007A080F39F5007508F90078080A128A1553
:10033A007A270A128A1179080A128A157A270A1262
:10034A008A110800831603138715071628308312AB
:10035A0003139400831603139101831203132D08C8
:10036A00B1002E08B2002F08B3003008B4000230E2
:10037A000310B10DB20DB30DB40DFF3E031DBD291F
:10038A003408F3003308F2003208F1003108F000B3
:10039A000030F7000030F6000030F5006430F40059
:1003AA000A128A110F210A128A117308831203137F
:1003BA00A3007208A2007108A1007008A000013011
:1003CA00A7003130A6002D30A5000030A4000A1283
:1003DA008A11D0230A128A11831203132008FF3EBE
:1003EA008316031393009401080000300A128A1539
:1003FA0094270A128A1103300A128A157A270A12D6
:10040A008A112130F5007630F400F40B0A2AF50B34
:10041A000A2A000003300A128A157A270A128A1158
:10042A004830F5006C30F400F40B192AF50B192A40
:10043A00000003300A128A157A270A128A1102303A
:10044A000A128A157A270A128A1102300A128A15A2
:10045A007A270A128A1108300A128A157A270A128A
:10046A008A1100300A128A157A270A128A110C3068
:10047A000A128A157A270A128A1100300A128A1574
:10048A007A270A128A1106300A128A157A270A125C
:10049A008A110800F601F31F532A542A5B2AF2092B
:1004AA00F309F20A0319F30AF601F60AF11F5E2AA2
:1004BA005F2A642AF009F109F00A0319F10A70089F
:1004CA0071040319692A6A2A992AF501F50A782A10
:1004DA0001300310F00DF10DFF3E031D6E2A0130AD
:1004EA00F4007408F507F11F7B2A7C2A6D2A71082B
:1004FA007302031D822A70087202031C852A862A47
:10050A008C2A7008F2027108031CF303F30201300B
:10051A000310F10CF00CFF3E031D8D2A0130F50289
:10052A00031D982A992A7C2A760803199D2A9E2A4D
:10053A00A32AF209F309F20A0319F30A7308F1006C
:10054A007208F0000800F40074080F39F10071080D
:10055A00F2007408F039F1007108F30083120313F2
:10056A0008157308F10004300310F10CFF3E031D57
:10057A00B92A71080A128A1594270A128A11831253
:10058A00031388153330F5008230F6000000FF307F
:10059A00F5070318F60AFF30F6077608803AFF00D7
:1005AA0080307F02031DDB2A01307502031CDE2A1C
:1005BA00DF2ACB2A83120313881172080A128A15BA
:1005CA0094270A128A118312031388153330F7000D
:1005DA008230F8000000FF30F7070318F80AFF30EE
:1005EA00F8077808803AFF0080307F02031DFF2A4F
:1005FA0001307702031C022B032BEF2A8312031309
:10060A00881108000A128A155A270A128A11F40157
:10061A00F40A01300A128A1155210A128A11773016
:10062A000A128A118D200A128A114C2B70300A1272
:10063A008A118D200A128A11682B69300A128A11CE
:10064A008D200A128A11682B53300A128A118D20C2
:10065A000A128A11682B2F300A128A118D200A1267
:10066A008A11682B42300A128A118D200A128A11C5
:10067A00682B62300A128A118D200A128A11682B9D
:10068A0039300A128A118D200A128A11682B7D08C4
:10069A00003A0319512B682B7C08013A03191B2BCA
:1006AA00033A0319222B013A0319292B073A031992
:1006BA00302B013A0319372B033A03193E2B013A1F
:1006CA000319452B682B0800F601F11F6D2B6E2BC1
:1006DA00752BF009F109F00A0319F10AF601F60A75
:1006EA00F31F782B792B822BF209F309F20A0319EB
:1006FA00F30A0130F4007408F606F701F8017008ED
:10070A0071040319892B8A2BC12BF501F50A982B41
:10071A0001300310F00DF10DFF3E031D8E2B013049
:10072A00F4007408F507F11F9B2B9C2B8D2B0130CD
:10073A000310F70DF80DFF3E031D9D2B7108730280
:10074A00031DA92B70087202031CAC2BAD2BB42B12
:10075A007008F2027108031CF303F30277140130E4
:10076A000310F10CF00CFF3E031DB52B0130F5020E
:10077A00031DC02BC12B9C2B76080319C52BC62B36
:10078A00CB2BF709F809F70A0319F80A7808F100D8
:10079A007708F0000800003083120313AB00003022
:1007AA00AA000030A9000030A8002308220421046E
:1007BA0020040319E12BE22B2F2CAC01AC0AF22BFB
:1007CA000130FD000310A00DA10DA20DA30DFD0B1C
:1007DA00E72B0130FD007D08AC07A31FF52BF62B94
:1007EA00E52B0130FD000310A80DA90DAA0DAB0DD4
:1007FA00FD0BF82B23082702031D0D2C22082602C5
:10080A00031D0D2C21082502031D0D2C200824028E
:10081A00031C102C112C202C2008A4022108031CD4
:10082A00210FA5022208031C220FA6022308031C7B
:10083A00230FA702281401300310A30CA20CA10C49
:10084A00A00CFF3E031D212C0130AC02031D2E2CEF
:10085A002F2CF62B2B08A3002A08A2002908A10096
:10086A002808A00008000A128A1525270A128A11E8
:10087A00D03083120313A0000030A1000A128A1597
:10088A0037270A128A11003083120313A000A1002D
:10089A000A128A1537270A128A118312031351087A
:1008AA00FA005008F9000A128A11DF200A128A1186
:1008BA007A0883120313A1007908A0000A128A1584
:1008CA0037270A128A11831203134F08FA004E08B7
:1008DA00F9000A128A11DF200A128A117A08831291
:1008EA000313A1007908A0000A128A1537270A12F1
:1008FA008A11831203134D08FA004C08F9000A12F0
:10090A008A11DF200A128A117A0883120313A100BE
:10091A007908A0000A128A1537270A128A110130AB
:10092A0083120313A0000030A1000A128A15372788
:10093A000A128A11831203134908FA004808F900B7
:10094A000A128A11DF200A128A117A088312031303
:10095A00A1007908A0000A128A1537270A128A11FB
:10096A00831203134708FA004608F9000A128A118B
:10097A00DF200A128A117A0883120313A100790868
:10098A00A0000A128A1537270A128A118312031342
:10099A004508FA004408F9000A128A11DF200A12EF
:1009AA008A117A0883120313A1007908A0000A1297
:1009BA008A1537270A128A110A128A152E270A124D
:1009CA008A1108000A128A1525270A128A11D030BC
:1009DA0083120313A0000030A1000A128A153727D8
:1009EA000A128A11003083120313A000A1000A120E
:1009FA008A1537270A128A110A128A152E270A120D
:100A0A008A110A128A1525270A128A11D1308312ED
:100A1A000313A0000030A1000A128A1537270A1210
:100A2A008A110130F0000030F1000A128A11B22056
:100A3A000A128A117108F7007008F6000A128A155C
:100A4A00DB270A128A11770883120313D10076086A
:100A5A00D0000130F0000030F1000A128A11B220F1
:100A6A000A128A117108F7007008F6000A128A152C
:100A7A00DB270A128A11770883120313CF0076083C
:100A8A00CE000130F0000030F1000A128A11B220C3
:100A9A000A128A117108F7007008F6000A128A15FC
:100AAA00DB270A128A11770883120313CD0076080E
:100ABA00CC000130F0000030F1000A128A11B22095
:100ACA000A128A110130F0000030F1000A128A116C
:100ADA00B2200A128A117108F7007008F6000A1289
:100AEA008A15DB270A128A11770883120313C900B1
:100AFA007608C8000130F0000030F1000A128A11AD
:100B0A00B2200A128A117108F7007008F6000A1258
:100B1A008A15DB270A128A11770883120313C70082
:100B2A007608C6000130F0000030F1000A128A117E
:100B3A00B2200A128A117108F7007008F6000A1228
:100B4A008A15DB270A128A11770883120313C50054
:100B5A007608C4000A128A152E270A128A110A1266
:100B6A008A1525270A128A11D13083120313A0008D
:100B7A000030A1000A128A1537270A128A11013099
:100B8A00F0000030F1000A128A11B2200A128A110A
:100B9A000A128A152E270A128A11080083160313CD
:100BAA0088010A128A11FA210A128A110030831264
:100BBA000313B0000030AF000030AE006430AD0067
:100BCA000A128A11A7210A128A110A128A113824D2
:100BDA000A128A110A128A155A270A128A11F4016C
:100BEA00F40A01300A128A1155210A128A110130B7
:100BFA000A128A118D200A128A11073083120313EE
:100C0A00B5003508F40002300A128A1155210A1279
:100C1A008A1123300A128A118D200A128A1127306A
:100C2A0083120313B7000D30B6002530B500B50B9B
:100C3A001C2EB60B1C2EB70B1C2E232E0A128A1141
:100C4A00E7240A128A110A30F0000030F1008312F8
:100C5A0003135108F3005008F2000A128A114F22B6
:100C6A000A128A11700883120313B5003508B800F6
:100C7A000A30F0000030F1005108F3005008F20089
:100C8A000A128A1169230A128A117008831203133D
:100C9A00B5003508B9000A30F0000030F1004F08FD
:100CAA00F3004E08F2000A128A114F220A128A1120
:100CBA00700883120313B5003508BA000A30F00031
:100CCA000030F1004F08F3004E08F2000A128A11B0
:100CDA0069230A128A11700883120313B5003508B2
:100CEA00BB000A30F0000030F1004D08F3004C0858
:100CFA00F2000A128A114F220A128A11700883120C
:100D0A000313B5003508BC000A30F0000030F100CA
:100D1A004D08F3004C08F2000A128A1169230A12DC
:100D2A008A11700883120313B5003508BD000A3012
:100D3A00F0000030F1004908F3004808F2000A12F6
:100D4A008A114F220A128A11700883120313B500FE
:100D5A003508BE000A30F0000030F1004908F300FF
:100D6A004808F2000A128A1169230A128A117008C5
:100D7A0083120313B5003508BF000A30F0000030B3
:100D8A00F1004708F3004608F2000A128A114F22BE
:100D9A000A128A11700883120313B5003508C000BD
:100DAA000A30F0000030F1004708F3004608F2006C
:100DBA000A128A1169230A128A117008831203130C
:100DCA00B5003508C1000A30F0000030F1004508CE
:100DDA00F3004408F2000A128A114F220A128A11F9
:100DEA00700883120313B5003508C2000A30F000F8
:100DFA000030F1004508F3004408F2000A128A1193
:100E0A0069230A128A11700883120313B500350880
:100E1A00C3000A128A155A270A128A11F401F40A1F
:100E2A0001300A128A1155210A128A114B300A120C
:100E3A008A118D200A128A11831203133D08303E4B
:100E4A000A128A11A8220A128A11831203133C0871
:100E5A00303E0A128A11A8220A128A113A300A125C
:100E6A008A11A8220A128A11831203133B08303E00
:100E7A000A128A11A8220A128A11831203133A0843
:100E8A00303E0A128A11A8220A128A113A300A122C
:100E9A008A11A8220A128A11831203133908303ED2
:100EAA000A128A11A8220A128A1183120313380815
:100EBA00303E0A128A11A8220A128A11F401F40A8F
:100ECA0002300A128A1155210A128A1112300A12A4
:100EDA008A118D200A128A110D3083120313B7006A
:100EEA00AF30B600B530B500B50B792FB60B792FF8
:100EFA00B70B792F802F0430FC000030FD000A1256
:100F0A008A1107230A128A11F401F40A02300A121A
:100F1A008A1155210A128A115B300A128A118D2010
:100F2A000A128A11831203133F08303E0A128A11E9
:100F3A00A8220A128A11831203133E08303E0A12AB
:100F4A008A11A8220A128A112D300A128A11A8229D
:100F5A000A128A11831203134108303E0A128A11B7
:100F6A00A8220A128A11831203134008303E0A1279
:100F7A008A11A8220A128A112D300A128A11A8226D
:100F8A000A128A11831203134308303E0A128A1185
:100F9A00A8220A128A11831203134208303E0A1247
:100FAA008A11A8220A128A110D3083120313B7007C
:100FBA00AF30B600B530B500B50BE12FB60BE12F57
:100FCA00B70BE12FE82F232E0A128A110028831368
:100FDA005030FD000F30FE004130FF0044308400E5
:100FEA000A128A156B270A128A11D001D1018301CC
:060FFA000A128A11D32D3A
:101E4A000A128A154D270A128A15831603131114CA
:101E5A0008000A128A154D270A128A1583160313D7
:101E6A00111508000A128A154D270A128A158312BB
:101E7A000313200893000800153400340C3400348E
:101E8A001D340034043400340C3400341934003462
:101E9A008316031311081F39031D542F552F4D2F75
:101EAA001419582F592F4D2F080000300A128A157D
:101EBA007A270A128A1501300A128A157A270A1213
:101ECA008A1508007E088A007F0882000A128A158D
:101EDA0067270A128A158000840A04087D060319F6
:101EEA000034FF0A0319FE0A6B2FF300831203134F
:101EFA00081173080A128A1594270A128A1583127E
:101F0A00031388151A30F200F830F100F10B8B2F09
:101F1A00F20B8B2F00008312031388110800F000C4
:101F2A00701C982F992F9D2F831203130816A02F28
:101F3A00831203130812F01CA32FA42FA62F8816AE
:101F4A00A72F8812701DAA2FAB2FAD2F0817AE2FFF
:101F5A000813F01DB12FB22FB42F8817B52F88138D
:101F6A000800F401F501701CBB2FBC2FC22F7208A8
:101F7A00F4070318F50A7308F50701300310F20D88
:101F8A00F30DFF3E031DC32F01300310F10CF00CBB
:101F9A00FF3E031DCA2F70087104031DD52FD62FCB
:101FAA00B82F7508F1007408F00008000F307605A4
:101FBA00F80000307705F900760E0F39F000770E39
:101FCA00F039F004770E0F39F100F030F11D0030CE
:101FDA00F1040A30F2000030F3000A128A15B6271B
:101FEA000A128A1578087007F60079080318790A20
:061FFA007107F70008006A
:02400E00723FFF
:00000001FF
